Taken from ``Lab 5/traces/3.A.PC1.pcap'':

**** WHY NO. 72? Lijkt erop dat 70 ook al fragmentatie ondervindt, dus moeten denk ik een datagram hebben van daarvoor. -- Josse ****

the complete datagram before fragmentation:
\begin{lstlisting}
No.     Time        Source                Destination           Protocol Length Info
     72 8.015696    10.0.1.11             10.0.2.22             UDP      35     Source port: 39068  Destination port: 5038

Frame 72: 35 bytes on wire (280 bits), 35 bytes captured (280 bits)
    Encapsulation type: Ethernet (1)
    Arrival Time: Mar 15, 2016 11:35:52.642696000 CET
    [Time shift for this packet: 0.000000000 seconds]
    Epoch Time: 1458038152.642696000 seconds
    [Time delta from previous captured frame: 0.000002000 seconds]
    [Time delta from previous displayed frame: 0.000002000 seconds]
    [Time since reference or first frame: 8.015696000 seconds]
    Frame Number: 72
    Frame Length: 35 bytes (280 bits)
    Capture Length: 35 bytes (280 bits)
    [Frame is marked: False]
    [Frame is ignored: False]
    [Protocols in frame: eth:ip:udp:data]
    [Coloring Rule Name: UDP]
    [Coloring Rule String: udp]
Ethernet II, Src: IntelCor_1a:7c:70 (68:05:ca:1a:7c:70), Dst: IntelCor_1a:80:18 (68:05:ca:1a:80:18)
    Destination: IntelCor_1a:80:18 (68:05:ca:1a:80:18)
        Address: IntelCor_1a:80:18 (68:05:ca:1a:80:18)
        .... ..0. .... .... .... .... = LG bit: Globally unique address (factory default)
        .... ...0 .... .... .... .... = IG bit: Individual address (unicast)
    Source: IntelCor_1a:7c:70 (68:05:ca:1a:7c:70)
        Address: IntelCor_1a:7c:70 (68:05:ca:1a:7c:70)
        .... ..0. .... .... .... .... = LG bit: Globally unique address (factory default)
        .... ...0 .... .... .... .... = IG bit: Individual address (unicast)
    Type: IP (0x0800)
Internet Protocol Version 4, Src: 10.0.1.11 (10.0.1.11), Dst: 10.0.2.22 (10.0.2.22)
    Version: 4
    Header length: 20 bytes
    Differentiated Services Field: 0x00 (DSCP 0x00: Default; ECN: 0x00: Not-ECT (Not ECN-Capable Transport))
        0000 00.. = Differentiated Services Codepoint: Default (0x00)
        .... ..00 = Explicit Congestion Notification: Not-ECT (Not ECN-Capable Transport) (0x00)
    Total Length: 21
    Identification: 0x07ef (2031)
    Flags: 0x00
        0... .... = Reserved bit: Not set
        .0.. .... = Don't fragment: Not set
        ..0. .... = More fragments: Not set
    Fragment offset: 1480
    Time to live: 64
    Protocol: UDP (17)
    Header checksum: 0x5b10 [validation disabled]
        [Good: False]
        [Bad: False]
    Source: 10.0.1.11 (10.0.1.11)
    Destination: 10.0.2.22 (10.0.2.22)
    [Source GeoIP: Unknown]
    [Destination GeoIP: Unknown]
    [2 IPv4 Fragments (1481 bytes): #71(1480), #72(1)]
        [Frame: 71, payload: 0-1479 (1480 bytes)]
        [Frame: 72, payload: 1480-1480 (1 byte)]
        [Fragment count: 2]
        [Reassembled IPv4 length: 1481]
        [Reassembled IPv4 data: 989c13ae05c9462e1472baa5935b4c7b3df37df0ae953907...]
User Datagram Protocol, Src Port: 39068 (39068), Dst Port: 5038 (5038)
    Source port: 39068 (39068)
    Destination port: 5038 (5038)
    Length: 1481
    Checksum: 0x462e [validation disabled]
        [Good Checksum: False]
        [Bad Checksum: False]
Data (1473 bytes)

0000  14 72 ba a5 93 5b 4c 7b 3d f3 7d f0 ae 95 39 07   .r...[L{=.}...9.
0010  c7 80 76 11 3b 82 f6 e7 aa c5 75 64 d8 c6 ab 8f   ..v.;.....ud....
0020  3e 6f 74 2a ce 1d 02 10 3a f9 85 56 55 20 e4 0f   >ot*....:..VU ..
0030  e8 69 4f 0d 97 71 ba 8c 59 b7 25 9e 9c 67 b2 81   .iO..q..Y.%..g..
0040  9f 67 2d f1 d9 0d ac 8e 01 c2 6d cb 1d a0 e6 b3   .g-.......m.....
0050  15 9f 8b ad ad 01 0c d0 c8 ad 21 1e 95 30 dd 1b   ..........!..0..
0060  2f 7b 2a e9 64 76 56 28 b4 4c 51 5c ca e3 85 ab   /{*.dvV(.LQ\....
0070  f8 dd 84 6a bc 50 fd e1 57 c9 f6 74 cb 87 aa 56   ...j.P..W..t...V
0080  2c 6e fb 08 7a 14 ee ff 78 10 3e 3b 4b bb 24 18   ,n..z...x.>;K.$.
0090  bb e1 d1 0f b5 80 0f 72 22 b9 72 0e a2 40 fa bb   .......r".r..@..
00a0  4b 20 f3 99 bf 83 18 08 5e 30 9a cf 7a a2 c6 ba   K ......^0..z...
00b0  02 61 14 2b cf 14 37 29 30 f2 91 36 32 3f bb 6c   .a.+..7)0..62?.l
00c0  f6 84 12 0f 8c c5 8a 8b 0c 20 8a 52 04 06 a6 74   ......... .R...t
00d0  3e a2 e9 1a 82 a0 b5 c0 8c f0 cd 7a e5 3d a3 98   >..........z.=..
00e0  78 18 07 0c a6 3b 37 16 54 39 d8 c5 b5 34 8e 2c   x....;7.T9...4.,
00f0  9e f9 ec 95 8d 03 54 06 95 57 3c c6 f6 f4 cf 91   ......T..W<.....
0100  af fe 96 0b a0 74 c4 29 69 fa 26 d7 bf e7 4f 49   .....t.)i.&...OI
0110  71 4d fc e9 1b 9f d0 bc bf 61 c1 17 64 14 f5 56   qM.......a..d..V
0120  b9 34 22 42 64 87 5a 95 64 00 9a 4b f6 7f 99 d3   .4"Bd.Z.d..K....
0130  fa 76 e2 fc 05 6d 05 d8 31 99 97 39 1d 6b 16 77   .v...m..1..9.k.w
0140  0e 48 bb c0 0c df 36 6f f2 84 3c af 79 3c 9b 33   .H....6o..<.y<.3
0150  33 6b a4 5b a5 0c 9a bc 18 91 a4 77 0a 63 36 72   3k.[.......w.c6r
0160  50 8e c0 72 f3 b5 d0 61 25 1e 38 51 74 a7 c6 b5   P..r...a%.8Qt...
0170  c0 42 cf b1 ee 73 c7 21 91 61 3a 3a c2 d0 bf a1   .B...s.!.a::....
0180  da 71 54 8e c7 d7 de 36 27 4c bd 74 86 33 73 76   .qT....6'L.t.3sv
0190  fb bd b3 16 8c 98 a9 e0 8e 7f 62 49 09 bf 68 3c   ..........bI..h<
01a0  ff 47 17 41 d7 33 93 b9 59 6a be de 75 ea d8 70   .G.A.3..Yj..u..p
01b0  23 dc 66 4b a5 14 70 5b 3c 36 63 e0 12 95 c7 33   #.fK..p[<6c....3
01c0  f5 12 df da fc b0 f8 03 cb 71 e6 93 70 8d bb bd   .........q..p...
01d0  de d6 fb fe 85 c1 25 31 7c ae 17 ea 83 30 09 42   ......%1|....0.B
01e0  0b 8d 67 0a b3 61 ee 91 82 b6 22 e1 7d 31 fa 09   ..g..a....".}1..
01f0  37 30 e7 07 b2 06 84 07 7a 41 ce db 88 33 f1 00   70......zA...3..
0200  63 ef dc 3a 64 18 0e 09 3c 8e 50 dc 9d d3 21 5d   c..:d...<.P...!]
0210  00 03 1e bb b0 43 ea d3 22 88 8f 13 6e ff 10 01   .....C.."...n...
0220  69 e6 12 fb 27 f8 e0 f3 01 7a 1a f8 9d 9e 4c 64   i...'....z....Ld
0230  ba b0 0d 66 d0 2e 5c bc 25 e4 b7 11 d1 7e d2 aa   ...f..\.%....~..
0240  dc b7 82 a7 e0 c9 32 99 8f 43 68 57 92 38 45 1e   ......2..ChW.8E.
0250  0f 7b 2b 64 b6 a8 d0 9f 86 8a 53 45 b1 94 60 c5   .{+d......SE..`.
0260  5d da 98 c0 ee aa 8a 22 07 90 f1 3e 61 a6 04 f0   ]......"...>a...
0270  f7 28 d3 6a b7 5d c8 63 de 4f 4b f3 e2 ac 26 aa   .(.j.].c.OK...&.
0280  ef cc 2e 7b 8d 93 81 81 75 f2 fc c7 f2 d8 57 10   ...{....u.....W.
0290  9a 11 8e 1c 8d 95 33 db 70 32 f6 7b 99 11 0b ae   ......3.p2.{....
02a0  40 98 04 6a bd c0 ce 5a 9b 9a f0 fe ee c4 b6 7a   @..j...Z.......z
02b0  8f 4b 3d 5f 85 f2 e9 b2 3f d3 06 13 a5 c0 04 2d   .K=_....?......-
02c0  66 4f af cb 56 9e 16 5d 95 e1 62 f3 1f 49 94 10   fO..V..]..b..I..
02d0  5b e3 d6 72 a0 68 24 d0 c0 70 92 02 24 62 e4 f3   [..r.h$..p..$b..
02e0  d6 d4 9c b9 59 ca 19 87 52 d9 a8 b6 6d 54 f7 b7   ....Y...R...mT..
02f0  10 67 bf 1c 14 43 48 dd 5b 8a 41 e8 4c cb 5a 79   .g...CH.[.A.L.Zy
0300  a8 0d cc 79 78 0f f7 64 7c 95 63 dd 51 f0 43 a1   ...yx..d|.c.Q.C.
0310  46 f5 88 67 43 3d 15 72 83 80 e8 93 e0 07 e0 0a   F..gC=.r........
0320  38 a4 11 e0 0b 76 81 13 d9 57 61 c0 3f 90 ab b7   8....v...Wa.?...
0330  4d b7 8b a4 2f 15 bb c3 12 64 86 2c 18 57 1e 27   M.../....d.,.W.'
0340  f6 2f f5 cc 23 6a cd bd b7 f7 bd 44 f8 62 a5 0d   ./..#j.....D.b..
0350  10 9b ab ec 1c ea 7a c2 fe d3 00 4f 79 a2 1d b5   ......z....Oy...
0360  c3 b6 17 cb 12 e8 13 06 6c d4 27 e8 a3 f8 b5 79   ........l.'....y
0370  aa 87 2d 99 9f 6f 5b f5 ec b3 68 9e f7 d3 3b fe   ..-..o[...h...;.
0380  d5 76 c2 e2 9b 78 ee cc 14 58 47 4a 04 5d 65 d9   .v...x...XGJ.]e.
0390  f8 81 09 9a fb b7 e0 69 04 59 24 e4 91 09 60 91   .......i.Y$...`.
03a0  3e 19 3a dc 05 76 89 87 8b 6f fd c8 bd b7 16 12   >.:..v...o......
03b0  ee 52 35 eb a2 02 45 cb 72 ac 75 96 f8 aa 96 a1   .R5...E.r.u.....
03c0  86 f6 22 ac d5 78 bb 66 81 ab 98 f1 b2 f4 8c 70   .."..x.f.......p
03d0  73 ce e7 86 bd f7 e8 41 8e 3e 6b 63 6b 04 1d 32   s......A.>kck..2
03e0  7b 22 5f c9 33 1d 81 48 1d cd d2 99 6c 1c 5b 3a   {"_.3..H....l.[:
03f0  ea c0 ee 49 f7 ff 87 d9 b2 6a ae 61 18 5e 90 ac   ...I.....j.a.^..
0400  0f d1 05 3f e4 f0 c8 6f 2c fa b3 19 3b 0f dd ca   ...?...o,...;...
0410  c6 49 7d 55 9e 51 02 9c 98 e4 f4 b0 49 a7 41 72   .I}U.Q......I.Ar
0420  dc 76 00 af e0 c9 a5 6b 1c 57 24 b3 d2 80 cb 84   .v.....k.W$.....
0430  b2 a3 83 5a 9f 16 c4 52 68 ae 71 a4 9a 31 eb d7   ...Z...Rh.q..1..
0440  7a ab a5 19 ef 71 13 c0 a7 48 db e9 07 99 8a 12   z....q...H......
0450  d0 54 5f 55 f6 6d d5 77 65 0e a5 37 bc 53 e3 5a   .T_U.m.we..7.S.Z
0460  e7 8a 1c a7 e9 0f 25 45 42 91 eb 09 13 f2 fc 04   ......%EB.......
0470  5f e8 de c8 4a c1 3e e0 26 7f 9d 6b 0f 30 02 14   _...J.>.&..k.0..
0480  f2 97 2e b2 87 a4 4d aa 9a 5e 21 33 63 34 9a af   ......M..^!3c4..
0490  be f9 a8 56 f5 e1 ae ed 90 59 51 35 c0 6f 1c 4d   ...V.....YQ5.o.M
04a0  86 5a 41 a9 b4 b5 e8 29 47 10 72 ca d1 1f 12 4b   .ZA....)G.r....K
04b0  e2 8a 00 70 03 96 57 4a 5f 04 ed ea 75 88 66 aa   ...p..WJ_...u.f.
04c0  3b ad 05 19 3b 72 e8 6b 9a b4 21 a6 49 f7 19 6d   ;...;r.k..!.I..m
04d0  d9 aa 59 44 c0 c6 72 eb 6c 21 bb 85 17 12 da 1a   ..YD..r.l!......
04e0  18 c2 0f 1d 86 c6 39 ea 36 ef 9d a5 e0 ec c0 43   ......9.6......C
04f0  d4 3a e8 8d 24 7d bf b7 9f 89 4a 93 94 d4 ed e3   .:..$}....J.....
0500  3a 93 28 a5 5b c7 f3 45 1c f4 26 6f 02 c8 f5 5e   :.(.[..E..&o...^
0510  32 9e 8c 16 63 9e fb 20 e5 3f 76 ec 5e 8e d3 aa   2...c.. .?v.^...
0520  91 f1 b3 e9 dd 1b 84 75 2a 2a 5f 33 da 0b aa d6   .......u**_3....
0530  ab 4e 25 28 2b e5 33 85 5e 3f 53 ec b5 6b 25 a0   .N%(+.3.^?S..k%.
0540  0c d2 ec aa 51 e9 77 9a 1c 45 9a 0b 5b b8 1c 18   ....Q.w..E..[...
0550  5d 11 cf 35 08 32 a5 68 91 b2 8c 10 a8 86 4f 46   ]..5.2.h......OF
0560  d2 5c 2f 48 41 50 57 32 3a 76 b4 84 ff 73 cf d6   .\/HAPW2:v...s..
0570  2c 3a 3c 67 5f 64 12 b6 c4 2d 18 a1 c1 2f 22 44   ,:<g_d...-.../"D
0580  a1 6a d9 8a 1b db ee 10 e7 10 09 66 21 1c 66 75   .j.........f!.fu
0590  7a 00 73 63 c2 1d 65 34 db be c3 46 b5 8f db b7   z.sc..e4...F....
05a0  20 dc 19 22 ec 46 c7 7c 8c b0 c2 6f 3f 06 ef c8    ..".F.|...o?...
05b0  d9 99 f5 95 1c 59 9c 55 7d 2e 4e 87 2f 46 08 a8   .....Y.U}.N./F..
05c0  e3                                                .
    Data: 1472baa5935b4c7b3df37df0ae953907c78076113b82f6e7...
    [Length: 1473]
\end{lstlisting}

all fragments after fragmentation:
\begin{lstlisting}
No.     Time        Source                Destination           Protocol Length Info
     71 8.015694    10.0.1.11             10.0.2.22             IPv4     1514   Fragmented IP protocol (proto=UDP 17, off=0, ID=07ef) [Reassembled in #72]

Frame 71: 1514 bytes on wire (12112 bits), 1514 bytes captured (12112 bits)
    Encapsulation type: Ethernet (1)
    Arrival Time: Mar 15, 2016 11:35:52.642694000 CET
    [Time shift for this packet: 0.000000000 seconds]
    Epoch Time: 1458038152.642694000 seconds
    [Time delta from previous captured frame: 0.000016000 seconds]
    [Time delta from previous displayed frame: 0.000016000 seconds]
    [Time since reference or first frame: 8.015694000 seconds]
    Frame Number: 71
    Frame Length: 1514 bytes (12112 bits)
    Capture Length: 1514 bytes (12112 bits)
    [Frame is marked: False]
    [Frame is ignored: False]
    [Protocols in frame: eth:ip:data]
Ethernet II, Src: IntelCor_1a:7c:70 (68:05:ca:1a:7c:70), Dst: IntelCor_1a:80:18 (68:05:ca:1a:80:18)
    Destination: IntelCor_1a:80:18 (68:05:ca:1a:80:18)
        Address: IntelCor_1a:80:18 (68:05:ca:1a:80:18)
        .... ..0. .... .... .... .... = LG bit: Globally unique address (factory default)
        .... ...0 .... .... .... .... = IG bit: Individual address (unicast)
    Source: IntelCor_1a:7c:70 (68:05:ca:1a:7c:70)
        Address: IntelCor_1a:7c:70 (68:05:ca:1a:7c:70)
        .... ..0. .... .... .... .... = LG bit: Globally unique address (factory default)
        .... ...0 .... .... .... .... = IG bit: Individual address (unicast)
    Type: IP (0x0800)
Internet Protocol Version 4, Src: 10.0.1.11 (10.0.1.11), Dst: 10.0.2.22 (10.0.2.22)
    Version: 4
    Header length: 20 bytes
    Differentiated Services Field: 0x00 (DSCP 0x00: Default; ECN: 0x00: Not-ECT (Not ECN-Capable Transport))
        0000 00.. = Differentiated Services Codepoint: Default (0x00)
        .... ..00 = Explicit Congestion Notification: Not-ECT (Not ECN-Capable Transport) (0x00)
    Total Length: 1500
    Identification: 0x07ef (2031)
    Flags: 0x01 (More Fragments)
        0... .... = Reserved bit: Not set
        .0.. .... = Don't fragment: Not set
        ..1. .... = More fragments: Set
    Fragment offset: 0
    Time to live: 64
    Protocol: UDP (17)
    Header checksum: 0x3602 [validation disabled]
        [Good: False]
        [Bad: False]
    Source: 10.0.1.11 (10.0.1.11)
    Destination: 10.0.2.22 (10.0.2.22)
    [Source GeoIP: Unknown]
    [Destination GeoIP: Unknown]
    Reassembled IPv4 in frame: 72
Data (1480 bytes)

0000  98 9c 13 ae 05 c9 46 2e 14 72 ba a5 93 5b 4c 7b   ......F..r...[L{
0010  3d f3 7d f0 ae 95 39 07 c7 80 76 11 3b 82 f6 e7   =.}...9...v.;...
0020  aa c5 75 64 d8 c6 ab 8f 3e 6f 74 2a ce 1d 02 10   ..ud....>ot*....
0030  3a f9 85 56 55 20 e4 0f e8 69 4f 0d 97 71 ba 8c   :..VU ...iO..q..
0040  59 b7 25 9e 9c 67 b2 81 9f 67 2d f1 d9 0d ac 8e   Y.%..g...g-.....
0050  01 c2 6d cb 1d a0 e6 b3 15 9f 8b ad ad 01 0c d0   ..m.............
0060  c8 ad 21 1e 95 30 dd 1b 2f 7b 2a e9 64 76 56 28   ..!..0../{*.dvV(
0070  b4 4c 51 5c ca e3 85 ab f8 dd 84 6a bc 50 fd e1   .LQ\.......j.P..
0080  57 c9 f6 74 cb 87 aa 56 2c 6e fb 08 7a 14 ee ff   W..t...V,n..z...
0090  78 10 3e 3b 4b bb 24 18 bb e1 d1 0f b5 80 0f 72   x.>;K.$........r
00a0  22 b9 72 0e a2 40 fa bb 4b 20 f3 99 bf 83 18 08   ".r..@..K ......
00b0  5e 30 9a cf 7a a2 c6 ba 02 61 14 2b cf 14 37 29   ^0..z....a.+..7)
00c0  30 f2 91 36 32 3f bb 6c f6 84 12 0f 8c c5 8a 8b   0..62?.l........
00d0  0c 20 8a 52 04 06 a6 74 3e a2 e9 1a 82 a0 b5 c0   . .R...t>.......
00e0  8c f0 cd 7a e5 3d a3 98 78 18 07 0c a6 3b 37 16   ...z.=..x....;7.
00f0  54 39 d8 c5 b5 34 8e 2c 9e f9 ec 95 8d 03 54 06   T9...4.,......T.
0100  95 57 3c c6 f6 f4 cf 91 af fe 96 0b a0 74 c4 29   .W<..........t.)
0110  69 fa 26 d7 bf e7 4f 49 71 4d fc e9 1b 9f d0 bc   i.&...OIqM......
0120  bf 61 c1 17 64 14 f5 56 b9 34 22 42 64 87 5a 95   .a..d..V.4"Bd.Z.
0130  64 00 9a 4b f6 7f 99 d3 fa 76 e2 fc 05 6d 05 d8   d..K.....v...m..
0140  31 99 97 39 1d 6b 16 77 0e 48 bb c0 0c df 36 6f   1..9.k.w.H....6o
0150  f2 84 3c af 79 3c 9b 33 33 6b a4 5b a5 0c 9a bc   ..<.y<.33k.[....
0160  18 91 a4 77 0a 63 36 72 50 8e c0 72 f3 b5 d0 61   ...w.c6rP..r...a
0170  25 1e 38 51 74 a7 c6 b5 c0 42 cf b1 ee 73 c7 21   %.8Qt....B...s.!
0180  91 61 3a 3a c2 d0 bf a1 da 71 54 8e c7 d7 de 36   .a::.....qT....6
0190  27 4c bd 74 86 33 73 76 fb bd b3 16 8c 98 a9 e0   'L.t.3sv........
01a0  8e 7f 62 49 09 bf 68 3c ff 47 17 41 d7 33 93 b9   ..bI..h<.G.A.3..
01b0  59 6a be de 75 ea d8 70 23 dc 66 4b a5 14 70 5b   Yj..u..p#.fK..p[
01c0  3c 36 63 e0 12 95 c7 33 f5 12 df da fc b0 f8 03   <6c....3........
01d0  cb 71 e6 93 70 8d bb bd de d6 fb fe 85 c1 25 31   .q..p.........%1
01e0  7c ae 17 ea 83 30 09 42 0b 8d 67 0a b3 61 ee 91   |....0.B..g..a..
01f0  82 b6 22 e1 7d 31 fa 09 37 30 e7 07 b2 06 84 07   ..".}1..70......
0200  7a 41 ce db 88 33 f1 00 63 ef dc 3a 64 18 0e 09   zA...3..c..:d...
0210  3c 8e 50 dc 9d d3 21 5d 00 03 1e bb b0 43 ea d3   <.P...!].....C..
0220  22 88 8f 13 6e ff 10 01 69 e6 12 fb 27 f8 e0 f3   "...n...i...'...
0230  01 7a 1a f8 9d 9e 4c 64 ba b0 0d 66 d0 2e 5c bc   .z....Ld...f..\.
0240  25 e4 b7 11 d1 7e d2 aa dc b7 82 a7 e0 c9 32 99   %....~........2.
0250  8f 43 68 57 92 38 45 1e 0f 7b 2b 64 b6 a8 d0 9f   .ChW.8E..{+d....
0260  86 8a 53 45 b1 94 60 c5 5d da 98 c0 ee aa 8a 22   ..SE..`.]......"
0270  07 90 f1 3e 61 a6 04 f0 f7 28 d3 6a b7 5d c8 63   ...>a....(.j.].c
0280  de 4f 4b f3 e2 ac 26 aa ef cc 2e 7b 8d 93 81 81   .OK...&....{....
0290  75 f2 fc c7 f2 d8 57 10 9a 11 8e 1c 8d 95 33 db   u.....W.......3.
02a0  70 32 f6 7b 99 11 0b ae 40 98 04 6a bd c0 ce 5a   p2.{....@..j...Z
02b0  9b 9a f0 fe ee c4 b6 7a 8f 4b 3d 5f 85 f2 e9 b2   .......z.K=_....
02c0  3f d3 06 13 a5 c0 04 2d 66 4f af cb 56 9e 16 5d   ?......-fO..V..]
02d0  95 e1 62 f3 1f 49 94 10 5b e3 d6 72 a0 68 24 d0   ..b..I..[..r.h$.
02e0  c0 70 92 02 24 62 e4 f3 d6 d4 9c b9 59 ca 19 87   .p..$b......Y...
02f0  52 d9 a8 b6 6d 54 f7 b7 10 67 bf 1c 14 43 48 dd   R...mT...g...CH.
0300  5b 8a 41 e8 4c cb 5a 79 a8 0d cc 79 78 0f f7 64   [.A.L.Zy...yx..d
0310  7c 95 63 dd 51 f0 43 a1 46 f5 88 67 43 3d 15 72   |.c.Q.C.F..gC=.r
0320  83 80 e8 93 e0 07 e0 0a 38 a4 11 e0 0b 76 81 13   ........8....v..
0330  d9 57 61 c0 3f 90 ab b7 4d b7 8b a4 2f 15 bb c3   .Wa.?...M.../...
0340  12 64 86 2c 18 57 1e 27 f6 2f f5 cc 23 6a cd bd   .d.,.W.'./..#j..
0350  b7 f7 bd 44 f8 62 a5 0d 10 9b ab ec 1c ea 7a c2   ...D.b........z.
0360  fe d3 00 4f 79 a2 1d b5 c3 b6 17 cb 12 e8 13 06   ...Oy...........
0370  6c d4 27 e8 a3 f8 b5 79 aa 87 2d 99 9f 6f 5b f5   l.'....y..-..o[.
0380  ec b3 68 9e f7 d3 3b fe d5 76 c2 e2 9b 78 ee cc   ..h...;..v...x..
0390  14 58 47 4a 04 5d 65 d9 f8 81 09 9a fb b7 e0 69   .XGJ.]e........i
03a0  04 59 24 e4 91 09 60 91 3e 19 3a dc 05 76 89 87   .Y$...`.>.:..v..
03b0  8b 6f fd c8 bd b7 16 12 ee 52 35 eb a2 02 45 cb   .o.......R5...E.
03c0  72 ac 75 96 f8 aa 96 a1 86 f6 22 ac d5 78 bb 66   r.u......."..x.f
03d0  81 ab 98 f1 b2 f4 8c 70 73 ce e7 86 bd f7 e8 41   .......ps......A
03e0  8e 3e 6b 63 6b 04 1d 32 7b 22 5f c9 33 1d 81 48   .>kck..2{"_.3..H
03f0  1d cd d2 99 6c 1c 5b 3a ea c0 ee 49 f7 ff 87 d9   ....l.[:...I....
0400  b2 6a ae 61 18 5e 90 ac 0f d1 05 3f e4 f0 c8 6f   .j.a.^.....?...o
0410  2c fa b3 19 3b 0f dd ca c6 49 7d 55 9e 51 02 9c   ,...;....I}U.Q..
0420  98 e4 f4 b0 49 a7 41 72 dc 76 00 af e0 c9 a5 6b   ....I.Ar.v.....k
0430  1c 57 24 b3 d2 80 cb 84 b2 a3 83 5a 9f 16 c4 52   .W$........Z...R
0440  68 ae 71 a4 9a 31 eb d7 7a ab a5 19 ef 71 13 c0   h.q..1..z....q..
0450  a7 48 db e9 07 99 8a 12 d0 54 5f 55 f6 6d d5 77   .H.......T_U.m.w
0460  65 0e a5 37 bc 53 e3 5a e7 8a 1c a7 e9 0f 25 45   e..7.S.Z......%E
0470  42 91 eb 09 13 f2 fc 04 5f e8 de c8 4a c1 3e e0   B......._...J.>.
0480  26 7f 9d 6b 0f 30 02 14 f2 97 2e b2 87 a4 4d aa   &..k.0........M.
0490  9a 5e 21 33 63 34 9a af be f9 a8 56 f5 e1 ae ed   .^!3c4.....V....
04a0  90 59 51 35 c0 6f 1c 4d 86 5a 41 a9 b4 b5 e8 29   .YQ5.o.M.ZA....)
04b0  47 10 72 ca d1 1f 12 4b e2 8a 00 70 03 96 57 4a   G.r....K...p..WJ
04c0  5f 04 ed ea 75 88 66 aa 3b ad 05 19 3b 72 e8 6b   _...u.f.;...;r.k
04d0  9a b4 21 a6 49 f7 19 6d d9 aa 59 44 c0 c6 72 eb   ..!.I..m..YD..r.
04e0  6c 21 bb 85 17 12 da 1a 18 c2 0f 1d 86 c6 39 ea   l!............9.
04f0  36 ef 9d a5 e0 ec c0 43 d4 3a e8 8d 24 7d bf b7   6......C.:..$}..
0500  9f 89 4a 93 94 d4 ed e3 3a 93 28 a5 5b c7 f3 45   ..J.....:.(.[..E
0510  1c f4 26 6f 02 c8 f5 5e 32 9e 8c 16 63 9e fb 20   ..&o...^2...c.. 
0520  e5 3f 76 ec 5e 8e d3 aa 91 f1 b3 e9 dd 1b 84 75   .?v.^..........u
0530  2a 2a 5f 33 da 0b aa d6 ab 4e 25 28 2b e5 33 85   **_3.....N%(+.3.
0540  5e 3f 53 ec b5 6b 25 a0 0c d2 ec aa 51 e9 77 9a   ^?S..k%.....Q.w.
0550  1c 45 9a 0b 5b b8 1c 18 5d 11 cf 35 08 32 a5 68   .E..[...]..5.2.h
0560  91 b2 8c 10 a8 86 4f 46 d2 5c 2f 48 41 50 57 32   ......OF.\/HAPW2
0570  3a 76 b4 84 ff 73 cf d6 2c 3a 3c 67 5f 64 12 b6   :v...s..,:<g_d..
0580  c4 2d 18 a1 c1 2f 22 44 a1 6a d9 8a 1b db ee 10   .-.../"D.j......
0590  e7 10 09 66 21 1c 66 75 7a 00 73 63 c2 1d 65 34   ...f!.fuz.sc..e4
05a0  db be c3 46 b5 8f db b7 20 dc 19 22 ec 46 c7 7c   ...F.... ..".F.|
05b0  8c b0 c2 6f 3f 06 ef c8 d9 99 f5 95 1c 59 9c 55   ...o?........Y.U
05c0  7d 2e 4e 87 2f 46 08 a8                           }.N./F..
    Data: 989c13ae05c9462e1472baa5935b4c7b3df37df0ae953907...
    [Length: 1480]
\end{lstlisting}


Determine the values of the fields in the IP header that are used for fragmentation: \\

Packet 71 (IPv4): \\
Identification: 2031\\
Don't Fragment Bit: Not set\\
More Fragments Bit: Set\\
Fragment Offset: 0\\

Packet 72 (UDP): \\
Identification: 2031\\
Don't Fragment Bit: Not set\\
More Fragments Bit: Not set\\
Fragment Offset: 1480\\

In packet 71, the More Fragments bit is set to show that this packet belongs to a fragment of a datagram. The Identification is set to be the same as the UDP packet 72 to indicate that packet 71 is a fragment for packet 72. The fragment offset value is used to reassemble the data in the correct order. \\
